:020000040800F2
:10000000005000200D010008D9420008DD42000820
:10001000E1420008E5420008E94200080000000053
:10002000000000000000000000000000ED42000899
:10003000F142000800000000F5420008F942000803
:100040005101000851010008510100085101000848
:100050005101000851010008510100085101000838
:100060005101000851010008510100085101000828
:100070005101000851010008510100085101000818
:100080005101000851010008510100085101000808
:10009000FD4200085101000851010008510100080B
:1000A00051010008510100085101000851010008E8
:1000B00051010008510100085101000851010008D8
:1000C00051010008510100085101000851010008C8
:1000D00009430008054300085101000801430008D6
:1000E0005101000851010008510100080000000002
:1000F0000000000000000000000000000000000000
:0C01000000000000000000005FF808F1A3
:10010C00002103E00A4B5B584350043109480A4B69
:10011C0042189A42F6D3094A02E0002342F8043B03
:10012C00074B9A42F9D300F00FF803F09DF8704793
:10013C00F063000800000020E0000020E000002038
:10014C00644A0020FEE7000030B400244FF41F0581
:10015C003A4B3B4A196882B041F001011960596869
:10016C0018460A405A601A6822F0847222F48032CF
:10017C001A601A6822F480221A605A6822F4FE026D
:10018C005A609D60009401941A6842F480321A609F
:10019C0003E0009BB3F5A06F09D0036803F40033B0
:1001AC000193009B01330093019B002BF1D0234B57
:1001BC001B6813F4003318BF01230193019B012B1F
:1001CC0006D04FF000621F4B9A6002B030BC7047F3
:1001DC001D491A4B08681A4640F010000860086860
:1001EC0020F007000860086840F0020008605968B9
:1001FC00596059685960596841F48061596059686F
:10020C0021F47C115960596841F4E811596019685E
:10021C0041F08071196013689B01FCD55368074944
:10022C0023F003035360536843F0020353604B689D
:10023C0003F00C03082BFAD1C3E700BF00100240F7
:10024C000000FFF800ED00E000200240114A536866
:10025C0003F00C03082B09D00F4B0E4A0F495268C0
:10026C00C2F303128A5CD3400B6170475368516828
:10027C00C3F38343C90303F1020306D55268920307
:10028C0003D4054A02FB03F3E7E7054A02FB03F339
:10029C00E3E700BF0010024000127A0000000020CB
:1002AC0000093D0070B4058C1B4E25F001052D0492
:1002BC002D0C0584048B42EA031324F0F30424046C
:1002CC00240C058C1C43B042A4B2ADB21BD0134B12
:1002DC00984218D0B0F1804F15D0A3F598339842BE
:1002EC0011D003F5806398420DD003F580639842DA
:1002FC0009D025F00A0341EA030545F00105048302
:10030C00058470BC704725F002050D4345F00105CE
:10031C000483058470BC7047002C014000340140FC
:10032C0070B440F6FF45048C120224F0100424042F
:10033C00240C0484048B42EA0333174A2540068CB0
:10034C001D430C019042ADB2B6B2A4B21AD0134BFD
:10035C00984217D0B0F1804F14D0A3F5983398423F
:10036C0010D003F5806398420CD003F5806398425B
:10037C0008D026F0A0060E4346F010040583048432
:10038C0070BC704726F02006344344F010040583FB
:10039C00048470BC704700BF002C01400034014045
:1003AC0008B57C4B984242D0B0F1804F4BD07A4B81
:1003BC00984252D0794B98422FD0794B984256D0D4
:1003CC00784B98425DD0784B984264D0774B9842EA
:1003DC0000F08380764B984267D0764B984200F0C1
:1003EC008880754B984200F09080744B984200F0D6
:1003FC009880734B984200F09E80724B984200F0AC
:10040C00A480714B984200F0AC80704B984258D04D
:10041C006F4B984200F0B18008BD0121042001F01F
:10042C007DFCBDE808400021042001F077BC0121CF
:10043C004FF4006001F066FCBDE8084000214FF469
:10044C00006001F05FBC0121084601F067FCBDE8CB
:10045C0008400021012001F061BC0121022001F0C3
:10046C005DFCBDE808400021022001F057BC0121D1
:10047C00082001F053FCBDE808400021082001F0E1
:10048C004DBC0121102001F049FCBDE808400021C1
:10049C00102001F043BC0121202001F03FFCBDE8FD
:1004AC0008400021202001F039BC01214FF400202C
:1004BC0001F028FCBDE8084000214FF4002001F0B9
:1004CC0021BC01214FF4003001F01CFCBDE80840B8
:1004DC0000214FF4003001F015BC01214FF4005005
:1004EC0001F010FCBDE8084000214FF4005001F071
:1004FC0009BC01214FF4801001F004FCBDE8084058
:10050C0000214FF4801001F0FDBB01214FF40010CD
:10051C0001F0F8FBBDE8084000214FF4001001F099
:10052C00F1BB0121402001F0F9FBBDE8084000219E
:10053C00402001F0F3BB0121802001F0EFFBBDE86E
:10054C0008400021802001F0E9BB01214FF48070AC
:10055C0001F0E4FBBDE8084000214FF4807001F08D
:10056C00DDBB01214FF4803001F0CCFBBDE808402D
:10057C0000214FF4803001F0C5BB01214FF48020E5
:10058C0001F0C0FBBDE8084000214FF4802001F0D1
:10059C00B9BB00BF002C0140000400400008004023
:1005AC00000C0040001000400014004000340140DA
:1005BC00004C014000500140005401400018004024
:1005CC00001C00400020004000400140004401405D
:1005DC0000480140274A0388904270B49BB212D065
:1005EC0002F5006290420ED0B0F1804F0BD0A2F514
:1005FC009832904207D002F58062904203D002F507
:10060C008062904203D14A8823F0700313431A4D41
:10061C008C88A8420A8815D005F58065A84211D0AF
:10062C00CE8823F440739BB205F58C353343A84236
:10063C000380848502850CD170BC0B7A0386012360
:10064C0083827047038084850285012370BC83827A
:10065C0070470A4B9842EFD003F540639842EBD0B9
:10066C0003F580639842E7D003F580639842E3D0AA
:10067C00EBE700BF002C01400010004000340140AB
:10068C00038CF0B423F001031B041B0C0D890384B1
:10069C00028C4E8822F0020284881204038B3543AC
:1006AC00120C23F073032A43164D1B040E881B0CEB
:1006BC00A842A4B243EA06030FD005F50065A84290
:1006CC000BD005F54065A84207D005F58065A8421A
:1006DC0003D005F58065A8420DD14E8922F00802A1
:1006EC008D89CF8932438E8824F4407422F0040221
:1006FC003D4332432C43C98884800383F0BC8186FC
:10070C0002847047002C0140028CF0B422F01002DD
:10071C001204120C0D890284038C4E88848823F0F9
:10072C002003028B1B04354322F4E6421B0C43EAE4
:10073C00051312040E88144D120C42EA0622A8422C
:10074C009BB2A4B292B20AD005F50065A84206D0BD
:10075C00C98884800283F0BC0187038470474FF6FC
:10076C00BF754F8923F0800343EA07138E89CF8925
:10077C001D408B8824F440643E4345EA031344EA4D
:10078C0086049BB2A4B2E3E7002C0140028CF0B4C7
:10079C0022F480721204120C0D890284038C4E8890
:1007AC0023F4007384881B04828B35431B0C43EAAF
:1007BC00052322F07302154D12040E88120CA84268
:1007CC009BB2A4B242EA06020AD005F50065A84223
:1007DC0006D0C98884808283F0BC818703847047EB
:1007EC004FF6FF354F8923F4006343EA07238E89C4
:1007FC00CF891D408B8824F440543E4345EA0323A3
:10080C0044EA06149BB2A4B2E3E700BF002C0140FB
:10081C00028C70B422F480521204120C0D890284E2
:10082C00038C4E88848823F40053828B1B0435433D
:10083C0022F4E6421B0C43EA053312040E880E4DDB
:10084C00120C42EA0622A8429BB2A4B292B20BD07E
:10085C0005F50065A84207D0C9888480828370BCE6
:10086C00A0F84010038470478D8924F4804444EA36
:10087C008514A4B2F0E700BF002C0140F8B50D467A
:10088C000E88AA8849882B890446002E47D0042E4E
:10089C0000F09280082E4FD040F6FF46008C1B03D0
:1008AC0020F480500004000C2084A08B4A4F43EAB3
:1008BC0002230640208C33430A03BC429BB280B215
:1008CC0092B218D0454EB44215D0B4F1804F12D02C
:1008DC00A6F59836B4420ED006F58066B4420AD01E
:1008EC0006F58066B44206D047F6FF5202400A4332
:1008FC0042F4805204E020F40050024342F480524F
:10090C00A3832284A38BEA8823F440631B041B0C6F
:10091C00A383A38B43EA02239BB2A383F8BDFFF707
:10092C00C1FC038BEA8823F00C031B041B0C038310
:10093C00038B13430383F8BD008C274E20F4807087
:10094C000004000C2084A08B278C80B220F0F300D4
:10095C00024342EA0312B4424FEA012392B2BFB2FD
:10096C009BB217D01D48844214D0B4F1804F11D0E3
:10097C00A0F5983084420DD000F58060844209D0F7
:10098C0000F58060844205D027F420670F4347F4BC
:10099C00807304E027F400773B4343F48073A28315
:1009AC002384A38BEA8823F00C031B041B0CA38366
:1009BC00A38B1343A383F8BDFFF7B2FC038BEA8828
:1009CC0023F440631B041B0C0383038B43EA0223B5
:1009DC009BB20383F8BD00BF002C014000340140E2
:1009EC00F8B50D464988AA880029B5F800C00CBF97
:1009FC0002260026012A0CBF022701272B89BCF1F5
:100A0C00000F1DD1FFF74EFC038BE98823F00C037C
:100A1C001B041B0C0383038B3A460B4303833146A5
:100A2C002B89FFF77DFC038BEA8823F440631B04BE
:100A3C001B0C0383038B43EA02239BB20383F8BD95
:100A4C00FFF76EFC038BE98823F440631B041B0C3B
:100A5C000383038B3A4643EA01239BB2038331465B
:100A6C002B89FFF71FFC038BEA8823F00C031B0474
:100A7C001B0C0383038B13430383F8BD10B40B8847
:100A8C004C888A882343CC8813430A8923434C8996
:100A9C0013438A8923431343A0F8443010BC704796
:100AAC0000234FF6FF7203808280C3804380037261
:100ABC00704700BF0023038043808380C380038181
:100ACC0043818381C381704700230122038082808C
:100ADC004380C3800381704700230380438083805D
:100AEC00C380038143818381704700BF038819B1A0
:100AFC0043F001030380704723F001031B041B0C1C
:100B0C0003807047B0F8443021B143F40043A0F89F
:100B1C0044307047C3F30E03A0F84430704700BF55
:100B2C00838912B119438181704723EA01018181C4
:100B3C00704700BF818270470A43A0F84820704775
:100B4C00FFF7EEBF038923F007031B041B0C038183
:100B5C00704700BF038923F070031B041B0C19435F
:100B6C000181038943F0070303817047602938B57D
:100B7C000D46044611464FF001020DD0FFF792FBD3
:100B8C00218921F070010904090C29432181238951
:100B9C0043F00703238138BDFFF7C2FBF0E700BF2A
:100BAC0010B4048942EA03231943E4B20C43A4B2FF
:100BBC000481038910BC23F077031B041B0C43F046
:100BCC0077030381704700BF10B4048942EA032302
:100BDC001943E4B20C43A4B20481038910BC43F45E
:100BEC0080430381704700BF10B404890A4342EA72
:100BFC000323E4B21C43A4B2048110BC704700BFB1
:100C0C0001858282704700BF038823F070031B04A8
:100C1C001B0C194301807047038923F070031B04DC
:100C2C001B0C194301817047F0B40589078B048CA8
:100C3C000B4E24F0220425F00705240442EA03138A
:100C4C003E402D04240C2D0C1C4346F48073294388
:100C5C00A4B243F00103018103830484F0BC704708
:100C6C00FCFCFFFF038B23F070031B041B0C1943CC
:100C7C0001837047038B23F4E0431B041B0C43EAF2
:100C8C00012189B201837047838B23F070031B040D
:100C9C001B0C194381837047838B23F4E0431B04A3
:100CAC001B0C43EA012189B281837047038819B177
:100CBC0043F080030380704723F080031B041B0C5C
:100CCC0003807047838819B143F004038380704715
:100CDC0023F004031B041B0C83807047838819B119
:100CEC0043F008038380704723F008031B041B0C9C
:100CFC0083807047838819B143F001038380704768
:100D0C0023F001031B041B0C83807047038B23F01F
:100D1C0008031B041B0C194301837047038B23F43A
:100D2C0000631B041B0C43EA012189B20183704749
:100D3C00838B23F008031B041B0C1943818370471E
:100D4C00838B23F400631B041B0C43EA012189B23F
:100D5C0081837047038B23F004031B041B0C194382
:100D6C0001837047038B23F480631B041B0C43EA41
:100D7C00012189B201837047838B23F004031B0488
:100D8C001B0C194381837047838B23F480631B04F2
:100D9C001B0C43EA012189B281837047038B23F03A
:100DAC0080031B041B0C194301837047038BC3F393
:100DBC000E0343EA012189B201837047838B23F030
:100DCC0080031B041B0C194381837047838BC3F373
:100DDC000E0343EA012189B281837047038C23F00F
:100DEC0002031B041B0C194301847047038C23F072
:100DFC0008031B041B0C194301847047038C23F05C
:100E0C0020031B041B0C43EA011189B201847047B7
:100E1C00038C23F080031B041B0C43EA011189B2E1
:100E2C0001847047038C23F400731B041B0C43EAEE
:100E3C00012189B201847047038C23F400631B04E5
:100E4C001B0C43EA012189B201847047038C23F403
:100E5C0000531B041B0C43EA013189B20184704717
:100E6C0010B40124038C8C4023EA04030384038C08
:100E7C0002FA01F1194389B2018410BC704700BF1A
:100E8C0010B40424038C8C4023EA04030384038CE5
:100E9C0002FA01F1194389B2018410BC704700BFFA
:100EAC0010B40124038C8C4023EA040321F00804C1
:100EBC00038418306CB10439C1F34E010B58120283
:100ECC0023F4E0430B500B5892B21A430A5010BC57
:100EDC00704749080B5810BC23F070030B500B588B
:100EEC001A430A50704700BF038819B143F002033C
:100EFC000380704723F002031B041B0C0380704714
:100F0C00038819B143F004030380704723F00403F2
:100F1C001B041B0C03807047838819B143F08003BA
:100F2C008380704723F080031B041B0C8380704765
:100F3C00038823F008031B041B0C0380038819434C
:100F4C0001807047838823F070031B041B0C838083
:100F5C008388194381807047038923F007031B049E
:100F6C001B0C03810389194301817047038923F00A
:100F7C0080031B041B0C03810389194301817047F7
:100F8C0081847047818570478186704701877047DF
:100F9C0081877047A0F84010704700BF038B23F087
:100FAC000C031B041B0C0383038B19430183704735
:100FBC00038B23F440631B041B0C0383038B43EA56
:100FCC00012189B201837047838B23F00C031B042E
:100FDC001B0C8383838B194381837047838B23F48E
:100FEC0040631B041B0C8383838B43EA012189B26E
:100FFC0081837047038823F440731B041B0C03800C
:10100C000388194301807047808E7047008F7047AA
:10101C00808F7047B0F84000704700BF808C7047DD
:10102C00008D7047038A194214BF012000207047BD
:10103C00C94389B201827047038A828911EA03008D
:10104C0092B203D00A4214BF01200020704700BFA7
:10105C00C94389B20182704740F0BF60024B40F433
:10106C000030D860704700BF00ED00E0F0B4012400
:10107C000178C37801F01F0294404E09BBB10F4BAD
:10108C008278DD684778E8430F23C0F30220C0F173
:10109C000405C340AF4013403B43094A1B01DBB27C
:1010AC00114481F8003342F82640F0BC7047044BE1
:1010BC00203643F82640F0BC704700BF00ED00E03E
:1010CC0000E100E021F0604121F07F01014B014380
:1010DC009960704700ED00E0044A136911B10343B5
:1010EC001361704723EA00031361704700ED00E0C1
:1010FC00044A042813680CBF43F0040323F00403D0
:10110C001360704710E000E008B5264B984218D0E9
:10111C00254B984221D0254B98422AD0244B9842FB
:10112C0003D0244B984230D008BD01214FF400204D
:10113C0000F0F4FDBDE8084000214FF4002000F061
:10114C00EDBD01214FF4804000F0DCFDBDE808400E
:10115C0000214FF4804000F0D5BD01214FF4003048
:10116C0000F0DCFDBDE8084000214FF4003000F039
:10117C00D5BD01214FF4802000F0D0FDBDE8084022
:10118C0000214FF4802000F0C9BD01214FF48010E4
:10119C0000F0C4FDBDE8084000214FF4801000F0C1
:1011AC00BDBD00BF00380140004400400048004075
:1011BC00004C00400050004030B50D460446038AF8
:1011CC00CA889BB223F4405313438A8903828089D3
:1011DC00234B8988034028890B43698903430B43BC
:1011EC00A381A38A87B09BB223F44073134301A855
:1011FC00A38200F01BFDDDE903311A482A68844202
:10120C0008BF0B46A18903EB830309044CBF5200B2
:10121C00920003EB8303B3FBF2F364221248A5891B
:10122C00A0FB03C1490902FB11332A044FEA011147
:10123C000AD41B013233A0FB0323C3F343130B4328
:10124C009BB2238107B030BDDB003233A0FB0323FC
:10125C00C3F3421242EA01039BB2238107B030BDB3
:10126C00F3E9FFFF003801401F85EB5100234FF4D9
:10127C0016514FF440220160C0E90132838170475E
:10128C0030B40B884D888C88028A2B43C988234341
:10129C0092B20B4322F470621343038230BC70474A
:1012AC000023038043808380C3807047838919B1F6
:1012BC0043F400538381704723F400531B041B0C2D
:1012CC0083817047012310B401F01F04C1F3421154
:1012DC00012903FA04F30FD002290CBF103014308B
:1012EC0022B1026810BC134303607047026810BC43
:1012FC0022EA0303036070470C30F1E7838A12B1D2
:10130C0019438182704723EA01018182704700BF33
:10131C00038A23F00F031B041B0C0382038A19435B
:10132C0001827047838923F400631B041B0C8381A7
:10133C008389194381817047838919B143F0020372
:10134C008381704723F002031B041B0C83817047BD
:10135C00038A23F020031B041B0C0382038A19430A
:10136C0001827047038A19B143F4804303827047AA
:10137C0023F480431B041B0C03827047C1F3080148
:10138C00818070478088C0F308007047838943F0E0
:10139C0001038381704700BF038BDBB20383038B94
:1013AC0043EA012101837047038B03F47F430383DA
:1013BC00038B194301837047838A19B143F02003CF
:1013CC008382704723F020031B041B0C838270471D
:1013DC00838A19B143F010038382704723F0100302
:1013EC001B041B0C83827047838A19B143F00803DA
:1013FC008382704723F008031B041B0C8382704705
:10140C00838919B143F4004383817047C3F30E03FE
:10141C0083817047838A19B143F4006383827047D8
:10142C0023F400631B041B0C83827047838A23F014
:10143C0004031B041B0C8382838A1943818270472B
:10144C00838A19B143F002038382704723F00203AD
:10145C001B041B0C838270470388194214BF0120A4
:10146C0000207047C94389B2018070470123C1F342
:10147C00421210B4012A01F01F0403FA04F314D031
:10148C00022A0CBF028A828A1340028892B24BB1A4
:10149C000123090A03FA01F10A4214BF184600207D
:1014AC0010BC7047184610BC704782891340ECE79B
:1014BC000123090A8B40DB439BB20380704700BFBA
:1014CC0008B5174B984206D0164B98420FD0164BC6
:1014DC00984218D008BD01214FF4805000F012FC46
:1014EC00BDE8084000214FF4805000F00BBC0121F6
:1014FC004FF4804000F012FCBDE8084000214FF48E
:10150C00804000F00BBC01214FF4004000F006FCC1
:10151C00BDE8084000214FF4004000F0FFBB00BFC5
:10152C000030014000380040003C00404A880B88E5
:10153C0030B48C881343CA8823430C8913434A89DB
:10154C008D8923431343CC8902882B43234302F414
:10155C00415213430380838B0A8A23F400631B04D8
:10156C001B0C838330BC0282704700BFF0B505466C
:10157C000C460220A98B254AA3680A40AA8328841A
:10158C00AE8B834287B0A288B6B23CD0002A01A8A9
:10159C0014BF0227012700F049FBE188019AB1F53D
:1015AC00007F26D07F01B2FBF7F2A06802EB82022B
:1015BC005300B3FBF0F305339BB21548A288A0FB94
:1015CC000303DB085808871EFD2F03F001038CBFB3
:1015DC00022340EA032320886788A4893843024306
:1015EC00224332430B4342F400622B84AA8307B09C
:1015FC00F0BD120A02EB8202A0685300B3FBF0F3B9
:10160C0005339BB2D9E7E188E5E700BF40F0FFFF67
:10161C00CDCCCCCC00230722038002824380838074
:10162C00C380038143818381C381704700230222DD
:10163C00C0E9003382608381704700BF038819B111
:10164C0043F040030380704723F040031B041B0C42
:10165C0003807047838B19B143F480638383704795
:10166C0023F480631B041B0C83837047012309093B
:10167C008B409BB2818812B10B438380704721EA67
:10168C0003038380704700BF838812B119438180A4
:10169C00704723EA01018180704700BF8181704748
:1016AC00808970474FF6FF639942038805BF23F486
:1016BC0080731B0443F480731B0C0380704700BFC2
:1016CC00838819B143F004038380704723F004032B
:1016DC001B041B0C83807047038823F400631B04DA
:1016EC001B0C03800388194301807047038843F463
:1016FC0080530380704700BF038819B143F4005333
:10170C000380704723F400531B041B0C03807047A9
:10171C00012914BF008B808A80B27047008A704701
:10172C000388B1F5804F1BBF23F480431B0443F4A3
:10173C0080431B0C038070470389194214BF01209E
:10174C0000207047C94389B201817047012230B42F
:10175C0001F00F038488058902FA03F0284006D0B3
:10176C000909A4B28A40144214BF0120002030BCE5
:10177C00704700BF012301F00F018B40DB439BB28C
:10178C000381704708B52F4B98421CD02E4B9842C2
:10179C0023D02E4B98422AD02D4B984209D02D4B5A
:1017AC0098422ED02C4B984235D02C4B98423CD0A2
:1017BC0008BD0121202000F0A5FABDE80840002159
:1017CC00202000F09FBA0121042000F09BFABDE814
:1017DC0008400021042000F095BA0121082000F0F7
:1017EC0091FABDE808400021082000F08BBA0121D5
:1017FC00102000F087FABDE808400021102000F00E
:10180C0081BA0121402000F07DFABDE8084000219A
:10181C00402000F077BA0121802000F073FABDE877
:10182C0008400021802000F06DBA01214FF4807037
:10183C0000F068FABDE8084000214FF4807000F019
:10184C0061BA00BF00080140000C014000100140CB
:10185C000014014000180140001C01400020014010
:10186C00012108B5084600F04DFABDE808400021FA
:10187C00012000F047BA00BF2DE9F041CD780A886D
:10188C00EB0648BF8B7805F00F0748BF1F4312F0DB
:10189C00FF0F21D000234FF0010C4FF00F0806680A
:1018AC0002E00133082B16D00CFA03F131EA0204E2
:1018BC00F7D19C0008FA04FE26EA0E0607FA04F497
:1018CC00282D46EA04062ED0482D03F1010308BF4B
:1018DC000161082BE8D10660FF2A22D908234FF0BA
:1018EC00010C4FF00F08466802E00133102B17D0A3
:1018FC000CFA03F434EA0201F7D19900203908FA02
:10190C0001FE26EA0E0607FA01F1282D46EA010629
:10191C000BD0482D03F1010308BF0461102BE7D154
:10192C004660BDE8F0814161BBE74461DDE700BF83
:10193C004FF6FF7240F2024302804380704700BFB3
:10194C008368194214BF012000207047806880B260
:10195C00704700BFC368194214BF012000207047B4
:10196C00C06880B2704700BF016170474161704729
:10197C000AB1016170474161704700BFC160704797
:10198C0041F480338361816183618369836970472A
:10199C0010B44FF68074044A13682340194341EA8B
:1019AC000011116010BC704700000140014B186021
:1019BC00704700BF1C0020420028194B00F4401255
:1019CC00B4BFDB695B68B2F5401F30B484B21ED083
:1019DC00C20213D50322C0F30345AA4023EA020333
:1019EC0043F0706319B1420D1201944023430C4A29
:1019FC000028B4BFD361536030BC7047420D120154
:101A0C0004FA02F223EA020343F07063EAE7044D9E
:101A1C0023F070636A6822F070626A60E2E700BFCC
:101A2C000000014010B40F2401F0FC0303F18043CB
:101A3C0003F5803301F003019A6889008C4022EA97
:101A4C0004029A609A6800FA01F11143996010BC83
:101A5C00704700BF014B1860704700BFDC0020428C
:101A6C004FF41F000C4B0D4A196841F0010119602D
:101A7C0059680A405A601A6822F0847222F4803243
:101A8C001A601A6822F480221A605A6822F4FE0244
:101A9C005A609860704700BF001002400000FFF8C9
:101AAC000C4BB0F5803F1A6822F480321A601A6829
:101ABC0022F480221A6008D0B0F5802F04D11A6865
:101ACC0042F4A0221A60704770471A6842F48032C0
:101ADC001A60704700100240002382B00A4A01933A
:101AEC00136813F4003F019B03F101030193019B65
:101AFC0005D0054B1868C0F3404002B07047B3F5F1
:101B0C00A06FEDD1F5E700BF00100240034A136847
:101B1C0023F0F80343EAC000106070470010024045
:101B2C00014B1860704700BF00004242034A5368E3
:101B3C0023F47C1319430143516070470010024099
:101B4C00014B1860704700BF60004242034A536863
:101B5C0023F0030318435060704700BF001002408D
:101B6C00024B586800F00C00704700BF0010024098
:101B7C00034A536823F0F00318435060704700BFCA
:101B8C0000100240034A536823F4E063184350608A
:101B9C00704700BF00100240034A536823F460539F
:101BAC0043EAC0005060704700100240044A1378AA
:101BBC0011B103431370704723EA0003137070478D
:101BCC0009100240014B1860704700BFD800424218
:101BDC00034A536823F4404318435060704700BFD6
:101BEC00001002400022064B01281A701A7005D012
:101BFC00042802D105221A7070477047187070477C
:101C0C0020100240014B1860704700BF8004424214
:101C1C00024A136A18431062704700BF001002405A
:101C2C00014B1860704700BF3C0442421F4A10B47D
:101C3C00536803F00C03042B01D0082B20D01C4B51
:101C4C0003601A491B4A4C68C4F30314145DE34047
:101C5C0043604C68C4F30224145D23FA04F48460DA
:101C6C004C68C4F3C224145DE340C360496810BCE3
:101C7C00C1F381310A44127CB3FBF2F30361704768
:101C8C0053685168C3F38343C90303F1020307D5B7
:101C9C005268920304D4064A02FB03F30360D0E7B4
:101CAC00054A02FB03F30360CBE700BF00100240C0
:101CBC0000127A001400002000093D00044A536908
:101CCC0011B103435361704723EA0003536170471A
:101CDC0000100240044A936911B1034393617047A9
:101CEC0023EA00039361704700100240044AD36951
:101CFC0011B10343D361704723EA0003D3617047EA
:101D0C0000100240044AD36811B10343D3607047FA
:101D1C0023EA0003D360704700100240044A1369A1
:101D2C0011B103431361704723EA00031361704739
:101D3C0000100240014B1860704700BF4004424243
:101D4C00014B1860704700BF4C004242014B1870A9
:101D5C00704700BF071002404309012B0BD0022B28
:101D6C00094B00F01F000CBF1B6A5B6A23FA00F0E2
:101D7C0000F001007047044B00F01F001B6823FAB1
:101D8C0000F000F00100704700100240024A536A54
:101D9C0043F080735362704700100240034B9B6802
:101DAC00184214BF01200020704700BF00100240F1
:101DBC00014B1870704700BF0A10024000204FF40E
:101DCC003F4310B40349044C044A20600B8010BC00
:101DDC0013607047104A0020445C0040405C004097
:101DEC0070B500F07F05144628460E4600F094FFAF
:101DFC00A4B201462246304600F018F82846214687
:101E0C0000F0A6FF002070BD70B500F07F052846DD
:101E1C000E4600F0F1FF0446284600F08BFF2246E8
:101E2C000146304600F012F8204670BD01F1005119
:101E3C00013201F5405152104FEA410105D030F802
:101E4C00023B013A21F8043BF9D1704701F10051F2
:101E5C00013201F5405152104FEA410105D051F8C1
:101E6C00043B013A20F8023BF9D1704700232DE9DD
:101E7C00F047544F82B0DFF86491DFF86481524E22
:101E8C00ADF80630D9F80030504C99B21B04504DC7
:101E9C00504A398040F18B803B8803F00F03990046
:101EAC0001F1804101F5B84188F80030002B2FD1A9
:101EBC004BF6BF7A23689BB22B802B8803F0300340
:101ECC0013802B8803F440532B80236803EA0A0306
:101EDC0083F4005383F0200343F4004343F0800366
:101EEC0023603B88D9063AD523689BB2ADF80630FF
:101EFC00BDF806301A055DD4BDF806301B04C1D5FB
:101F0C0040F68F7123680B40236000F053FC2DE0EA
:101F1C000A68314892B2ADF80620BDF80620013BA4
:101F2C00140407D540F68F740A6850F82300224039
:101F3C000A608047BDF806301A06A3D548F60F7024
:101F4C0098F80020930003F1804303F5B843196817
:101F5C00013A014056F822201960904792E748F662
:101F6C000F7123680B40236000F0A2FC23682988C2
:101F7C0003EA0A0A174A2B8811F4805F18BF8AF407
:101F8C00805A9F04138848BF8AF4005ADE061388CF
:101F9C0048BF8AF0100A9D0648BF8AF0200A4AF40E
:101FAC00004A4AF0800A094A1FFA8AF3136002B009
:101FBC00BDE8F08740F68F7123680B40236000F07A
:101FCC0045FAD3E7144A002048000020005C00408A
:101FDC00D8490020DA4900202C000020445C004045
:101FEC00E8490020F8B51A4F1A4E1B4C1B4D3368AC
:101FFC001B489AB21B043A8029D547F6FF7333600D
:10200C003A8802F00F02930003F18043227003F52B
:10201C00B843196802F1FF3C11F4004F09D040F6A7
:10202C008F7E1A6850F82C1002EA0E021A6088474C
:10203C00DDE7090602F1FF32D9D548F60F7C1968A5
:10204C0055F8220001EA0C0119608047CFE7F8BD72
:10205C00144A0020445C0040E8490020480000205D
:10206C002C00002008B538B1064B1B681B6898473C
:10207C00054B18680A3008BD0122034B1B681A82F5
:10208C0008BD00BF084A00200C4A002008B538B132
:10209C00064B1B689B689847054B18680C3008BDAD
:1020AC000122034B1B681A8208BD00BF084A00209E
:1020BC000C4A002008B51E4B1A68002832D00020AC
:1020CC001C490880137813F07F0316D0012B2CD0F9
:1020DC00022B21D1527902F00F039B0003F18043B4
:1020EC0003F5B84312061B6817D403F44053B3F539
:1020FC00805F0CD101230B7009E0537A13F020029E
:10210C0018BF0222580648BF42F001020A700A4B5F
:10211C001B681B699847074808BD03F03003102B58
:10212C00F5D1E7E70223138208BD084608BD00BFBE
:10213C000C4A0020DC490020084A00202DE9F0411F
:10214C00234F3D682C8A2CB92E7A042E2BD0AB8AC7
:10215C00042604E0AB8A9C4294BF042602269C42CF
:10216C0028BF1C46AB69204698478046002000F0EB
:10217C00D3FD224601464046FFF758FE214600207B
:10218C0000F0E6FD30204FF440522B8A698A1B1B6D
:10219C002B820C440F4B10496C8208803D681A80CE
:1021AC002E72BDE8F0810D4B1A78012A04D0102252
:1021BC00094B07261A80F3E730200949094A0968B8
:1021CC0089B20A440449520014601C700880E7E785
:1021DC000C4A0020D8490020DA490020E0000020F9
:1021EC00505C00400230002010B50A4B0A4A1B68B4
:1021FC005178DA7891420AD39C7844B9998831B9EC
:10220C0006499A720B685B689847204610BD0224F9
:10221C00204610BD0C4A0020DC000020084A00209B
:10222C0038B50F4A0F4C12682368D97858799369DE
:10223C00984723689A7A7AB170B91A7962B99D78FD
:10224C0055B9094B1B68DB689847236828465979B0
:10225C00DA78D9721A7338BD0225284638BD00BF0A
:10226C00E44900200C4A0020084A00202F4B1B6830
:10227C00187810F07F002ED0022801D00220704771
:10228C005A883ABB1A792ABB5A7970B522F0800564
:10229C00AC0004F18044264E04F5B844216852B2D7
:1022AC003678002AB4BF01F0300101F44051AE423F
:1022BC000FD971B19B7A63B1002A236810DB03F448
:1022CC004053B3F5805F18D01A4B1B685B69984775
:1022DC00002070BD70475A7A22F020025A72704763
:1022EC0003F03003102BEFD1EDB2284600F0C8FC00
:1022FC002846302100F0B0FBE6E79DB90E4B28468E
:10230C0093F82C1000F046FD236823F4804323F04F
:10231C0070039BB283F4405343F4004343F08003B7
:10232C002360D1E7284600F099FCEDE70C4A002029
:10233C00DC000020084A00208400002038B51F4B28
:10234C001F4D18682D78427922F08004A30003F108
:10235C00804303F5B843196852B2002AB4BF01F0A8
:10236C00300101F44051A54219D94488BCB9B1B12E
:10237C00817AA1B1002A1A6813DB22F4804222F080
:10238C00700292B282F4805242F4004242F0800217
:10239C001A600C4B1B689B699847002038BD0220C3
:1023AC0038BD22F4E04222F0400292B282F01002D8
:1023BC0042F4004242F080021A60EAE70C4A002024
:1023CC00DC000020084A002008B5064A064B1268BB
:1023DC001968537A43F020035372CB699847002055
:1023EC0008BD00BF0C4A0020084A0020054B1B68A2
:1023FC005A8A10B108681044704789888A1A1A8260
:10240C00704700BF0C4A002010B50C4B002093F80D
:10241C002C1000F0BFFC0A4B1B68187A082806D158
:10242C004FF4805410220749074B0C801A80A0F1FE
:10243C000900B0FA80F0400910BD00BF84000020F4
:10244C000C4A0020D8490020DA490020F0B5A64EED
:10245C00A64B34681A68237A83B0092B6FD1E388B2
:10246C00012265782272002B3CD1227812F07F0277
:10247C0029D1092D00F0A180052D00F0A480032D99
:10248C0000F00A81012D00F01981994B28461B6838
:10249C005B6998470328346800F0B880002840F046
:1024AC009E800025914A934B1268302092B21344BF
:1024BC005B001D60062390490880237203B0BDE8C1
:1024CC00F040FFF7A1BF012A67D0022ADDD1012D10
:1024DC0000F0DC80032DD8D1FFF730FF0028D4D1D9
:1024EC003468DEE7062D7CD0002D43D1618831B9EC
:1024FC00636823F47F43B3F5003F00F00B817C4B02
:10250C001B681B692846984703287BD04FF6FF7140
:10251C0033681A8A8A423DD0022847D0002A45D017
:10252C0093F90010002973DB03204FF44051734AD8
:10253C001872118003B0BDE8F040FFF765BF704B17
:10254C0092B213445B001D886D0005F1804505F5C2
:10255C00C0452B7823706B786370A88800F082FDDF
:10256C0060802889346800F07DFDA080AB893468D8
:10257C00E38075E7082D61D123785B06BFD1614AF2
:10258C000020A261608290474FF6FF7133681A8A6F
:10259C008A42C3D109221A7290E70B2D7FF475AFD2
:1025AC00FFF73EFE00287FF470AF99E708221A72FD
:1025BC0003B0BDE8F040FFF727BFFFF715FE00287A
:1025CC007FF463AF8CE794F90330002B07DBA3781F
:1025DC002BB9A3881BB9A37A002B3FF462AF082355
:1025EC006BE72278424B50061B688AD1A278012AED
:1025FC0078D0022A48D0032A83D15A6A002ABFD144
:10260C0006257EE7092233681A7257E7092354E737
:10261C003748D98800680191019D90F82C40AA4256
:10262C00A0B22ED8914205D9904240F28D80002163
:10263C00354A11709882FFF781FD3FE72C4F0A2D28
:10264C003B687FF45EAF227802F07F02012A7FF4B0
:10265C0058AFA27A002A3FF454AF618800297FF466
:10266C0050AF626822F47F42B2F5803F7FF449AFED
:10267C009B6960799847002840F090803468234A21
:10268C007EE7019A1A82D5E71A6AB7E7FFF7EEFDE3
:10269C0000287FF4FAAE23E7E378012B7FF4F5AE44
:1026AC00A388002B7FF4F1AE637A194A43F0200320
:1026BC0012686372D36998473468F2E6E278012AAB
:1026CC007FF4E3AEA288002A7FF4DFAE627A940630
:1026DC007FF5DBAE0C4A5360FFF7C8FD00287FF492
:1026EC00D4AEFDE6DA6989E70C4A0020505C004064
:1026FC00E449002002300020DA490020D8490020AB
:10270C000430002071200008E0000020992000080F
:10271C00084A0020257815F07F0505D1A388002BE9
:10272C007FF4EDAE1F4A2BE7012D18D11E4F6079B7
:10273C003B689B699847002830D13468A37A002BFA
:10274C00F0D165783B68DCE6B2FBF4F104FB1122B6
:10275C00002A7FF46FAF0121144A11706AE7022D31
:10276C0018D1657905F00F029300290603F1804317
:10277C000F4903F5B8431B6809784CBF03F03003CD
:10278C0003F44053914205D915F0700502D1002B8A
:10279C00C8D1B4E6044B00251B68B2E632683B682E
:1027AC005578AEE6C1200008E4490020E000002086
:1027BC00DC000020F8B5384D2C68237A022B07D0AA
:1027CC00042B05D0032B09D0052B07D0072B2AD0BF
:1027DC0008232372BDE8F840FFF716BEA369228ACE
:1027EC00B3B1A68ABAB1964228BF1646304698476E
:1027FC00228A638A921B334407462282638200201A
:10280C0000F098FA324601463846FFF71FFB228A41
:10281C0082B9A68A2C680EBB032323722372BDE8EF
:10282C00F840FFF7F1BD1D4B1B68DB6898472C681F
:10283C000823CEE700214FF44052194B08461A806A
:10284C0000F086FA3021238AA28A164E9A423180F1
:10285C002C68E1D91BB105232372BAE7114E06226D
:10286C000E4B22721B689B6898472C68237A082BA6
:10287C000AD0002530200C490C4A096889B20A4458
:10288C00520015603080A4E74FF4805010220449A8
:10289C00088032809DE700BF0C4A0020E4490020EC
:1028AC00D8490020DA490020505C0040023000205A
:1028BC00F8B5224C23681A7A022A09D0042A07D0C8
:1028CC00062A0ED008221A72BDE8F840FFF79CBD0C
:1028DC00FFF734FC23681A7A1A72BDE8F840FFF748
:1028EC0093BD5A78052A0AD0154B1B689B689847EC
:1028FC00082223681A72BDE8F840FFF785BD1A78E4
:10290C0012F07F02F0D10F49DF78087868B140F6F9
:10291C000F7648F280050C490B68334013430132A3
:10292C002B43904241F8043BF6D1084B084A1B68F4
:10293C0047F0800717601B6A9847D5E70C4A0020C0
:10294C00E4490020DC000020005C0040084A002024
:10295C004C5C004070B40C4B1C7874B1002240F6F7
:10296C000F7648F2800509490B6833401343013256
:10297C002B43944241F8043BF6D170BC044B40F01D
:10298C0080001860704700BFDC000020005C004035
:10299C004C5C0040704700BF014B1860704700BF93
:1029AC00405C0040014B186880B27047405C0040AE
:1029BC00014B1860704700BF445C0040014B186825
:1029CC0080B27047445C0040014B186880B270477D
:1029DC00485C0040014B1860704700BF4C5C0040E5
:1029EC00014B186880B270474C5C00404FF6F8738E
:1029FC00014A034013607047505C0040014B18685B
:102A0C0080B27047505C0040800000F1804000F5BF
:102A1C00B8400160704700BF800000F1804000F5B5
:102A2C00B840006880B27047800000F1804000F52B
:102A3C00B840036823F4EC4323F07003194389B2C4
:102A4C0001607047800000F1804000F5B8400068DC
:102A5C0000F4C060704700BF800000F1804000F5BA
:102A6C00B8400368CA0623F4E04323F040039BB24A
:102A7C0048BF83F010038A0648BF83F0200343F459
:102A8C00004343F080030360704700BF800000F1F7
:102A9C00804000F5B8400368CA0423F4804323F057
:102AAC0070039BB248BF83F480538A0448BF83F4FD
:102ABC00005343F4004343F080030360704700BFAE
:102ACC00800000F1804000F5B8400129036807D070
:102ADC00022900D070474FF6EF7213400360704725
:102AEC004EF6FF7213400360704700BF800000F188
:102AFC00804000F5B840006800F03000704700BF1F
:102B0C00800000F1804000F5B840006800F44050AF
:102B1C00704700BF800000F1804000F5B8400368AA
:102B2C0023F4E04323F040039BB283F0300343F4DF
:102B3C00004343F080030360704700BF800000F146
:102B4C00804000F5B840036823F4804323F0700301
:102B5C009BB283F4405343F4004343F0800303607F
:102B6C00704700BF40F60F73800000F1804000F505
:102B7C00B8400268134043F4014343F08003036000
:102B8C00704700BF40F60F63800000F1804000F5F5
:102B9C00B8400268134043F4004343F080030360E1
:102BAC00704700BFFFF7EEBFFFF7DCBFFFF7DABFE0
:102BBC00FFF7E8BF800000F1804000F5B8400068E6
:102BCC0000F03000A0F11000B0FA80F0400970471E
:102BDC00800000F1804000F5B840006800F44050DF
:102BEC00A0F58050B0FA80F04009704740F68F7223
:102BFC00800000F1804000F5B8400368134003608A
:102C0C00704700BF48F60F72800000F1804000F55D
:102C1C00B840036813400360704700BF40F60F7262
:102C2C00800000F1804000F5B8400368134043F485
:102C3C00404343F080030360704700BF40F60F72BF
:102C4C00800000F1804000F5B8400368134043F465
:102C5C00004343F0C0030360704700BF800000F1E5
:102C6C00804000F5B84003685B0408D540F60F724D
:102C7C000368134043F4404343F080030360704700
:102C8C00800000F1804000F5B84003685B0608D571
:102C9C0040F60F720368134043F4004343F0C00343
:102CAC000360704740F60F72800000F1804000F521
:102CBC00B84003681340194341F4004141F08001CE
:102CCC0001607047800000F1804000F5B84000685A
:102CDC0000F00F00704700BF064B49081B68490005
:102CEC009BB203EBC00000F1005000F540504000D7
:102CFC0001607047505C0040054A064B1268490859
:102D0C0092B202EBC002134449005B001960704799
:102D1C00505C004004300020054B1B689BB203EB59
:102D2C00C00000F1005000F5405040000088704792
:102D3C00505C0040044A054B126892B202EBC00092
:102D4C0003445B0018887047505C0040043000203E
:102D5C00044A054B126892B202EBC00003445B00BC
:102D6C0019607047505C0040023000203E290AD99F
:102D7C004B09C90604BF03F1FF339BB29B0243F41A
:102D8C000043036070474B08CA0748BF01339B02DE
:102D9C00036070470E4A0F4B12683E2992B202EB49
:102DAC00C00003444FEA43030AD94A09C80604BFCA
:102DBC0002F1FF3292B2920242F400421A60704762
:102DCC004A08C90748BF013292021A60704700BF17
:102DDC00505C004006300020054A064B126892B247
:102DEC0002EBC00003445B001868C0F30900704795
:102DFC00505C004002300020054A064B126892B22B
:102E0C0002EBC00003445B001868C0F30900704774
:102E1C00505C00400630002030B40C4CC0002368DD
:102E2C0025689BB20344ADB2094C284403F100530E
:102E3C004908520803F54053044464004900520009
:102E4C005B001960226030BC704700BF505C0040D2
:102E5C0004300020FFF740BFFFF74EBFFFF75CBF09
:102E6C00FFF768BF012930B418D0022901D030BC5B
:102E7C007047224BC0001C681D68A4B2ADB201F1B2
:102E8C0000511F4B044401F5405128442144034494
:102E9C0049005B000A6030BC1A607047174BC000D9
:102EAC001B6818499BB2034419443E2A4FEA41015E
:102EBC0014D9124C53092468D20608BF03F1FF330E
:102ECC00A4B20F4A204408BF9BB29B02024443F4B5
:102EDC00004352000B6030BC136070475408D3079A
:102EEC00064A074B126848BF013492B2104403449F
:102EFC00A4025B000C601C6030BC7047505C00404E
:102F0C00063000200230002001290CD0022900D00C
:102F1C0070471349134B096889B201EBC0010B448C
:102F2C005B001A6070470E490E4B09683E2A89B245
:102F3C0001EBC0010B444FEA43030AD95109D006F7
:102F4C0004BF01F1FF3189B2890241F400411960DB
:102F5C0070475108D20748BF013189021960704788
:102F6C00505C00400230002001290CD0022900D016
:102F7C0070471349134B096889B201EBC0010B442C
:102F8C005B001A6070470E490E4B09683E2A89B2E5
:102F9C0001EBC0010B444FEA43030AD95109D00697
:102FAC0004BF01F1FF3189B2890241F4004119607B
:102FBC0070475108D20748BF013189021960704728
:102FCC00505C004006300020FFF706BFFFF714BF2F
:102FDC000D49C0000A680D4B92B2024413445B00C9
:102FEC001B6813F47C4F0DD10A68094B92B2104444
:102FFC0003445B001B68C3F30903002B14BF0220BE
:10300C000020704701207047505C004006300020C3
:10301C0002300020012911D0022900D0704740F65F
:10302C000F72800000F1804000F5B8400368134037
:10303C0043F4404343F080030360704740F60F7243
:10304C00800000F1804000F5B8400368134043F461
:10305C00004343F0C0030360704700BF41EA002007
:10306C00704700BFC3B2000A40EA0320704700BF9C
:10307C00022030B4064A074D074C084B1072084921
:10308C00084823602A601B68086030BC184700BFE2
:10309C00EC4900200C4A0020E44900208400002068
:1030AC00084A0020B8000020012130B5084685B040
:1030BC00FEF71CFE01210220FEF718FE00254FF63C
:1030CC00FF721A4B1A491B681A4CA1FB03139B0C79
:1030DC00013B01A94FF08040ADF804300292ADF8ED
:1030EC000650FDF777FA01A92046ADF80450FDF71C
:1030FC0071FA80214FF08040FDF738FF20214FF00E
:10310C008040FDF71FFF20460721FDF725FF2046D5
:10311C001021FDF781FD20460121FDF7E7FC01217F
:10312C004FF08040FDF7E2FC05B030BD10000020F0
:10313C0083DE1B43000400404FF08043024A9B8C0B
:10314C00908C43EA004070470004004010B44FF0EC
:10315C0080440549A38C8A8C43EA0243C31A002B92
:10316C00F8DC10BC704700BF000400404FF08043F7
:10317C00084A10B411461C469B8C928C43EA0243BD
:10318C001844A38C8A8C43EA0243C31A002BF8DC44
:10319C0010BC70470004004008B501224FF40051E8
:1031AC000548FEF7E5FB0020044BD3E90021521A39
:1031BC0058601A6008BD00BF00100140E8000020F4
:1031CC0008B54FF400510348FEF7C4FBB0FA80F089
:1031DC00400908BD0010014000224FF40051014885
:1031EC00FEF7C6BB0010014001224FF4005101480C
:1031FC00FEF7BEBB0010014008B54FF400510A4861
:10320C00FEF7A8FB38B1BDE8084000224FF400518E
:10321C000548FEF7ADBB0122BDE808404FF4005154
:10322C000148FEF7A5BB00BF00100140034AD2E9DC
:10323C0000315B1A0344506013607047E8000020B3
:10324C0038B5084C636803B938BDFFF775FF2368C0
:10325C000546C31A002BF7DBFFF7CEFF6068284446
:10326C00206038BDE80000200A2200232DE9F04F31
:10327C00B74991B00A60B74A136002F017FBFFF729
:10328C0013FFFFF789FF0221012000F015FDB24862
:10329C0000F084FDA021032000F098FE002840F0EF
:1032AC005F82A021032000F091FE002840F08B8269
:1032BC00A021032000F08AFE002840F07D82A0218E
:1032CC00032000F083FE002840F06F82A021032031
:1032DC0000F07CFE002840F06182A021032000F069
:1032EC0075FE002840F04A82A021032000F06EFEFB
:1032FC00002840F03C82002600F022FDB246FFF789
:10330C00B7FEDFF8D092DFF8D082944FFFF714FFAE
:10331C0099F800300546012B00F08280022B14BF77
:10332C008F489048FFF782FFFFF78AFF8E4AD8F844
:10333C0000403968AB1B93420C4404D88B4A93422F
:10334C0011D9A2450FD0A021022000F03FFE002889
:10335C0040F04681A021022000F038FE002840F009
:10336C00CA802E46A2464021684600F01DFF002868
:10337C00CCD0A021032000F029FE002840F057817A
:10338C009DF80030722B4FD165216A46784803E0D6
:10339C008B4222D110F8011F12F8013F002BF7D1FC
:1033AC00D9B9102020214FF48012724BC3F884003D
:1033BC00C3F88410C3F8802000F0C2FCA0210320C5
:1033CC0000F004FE002840F0528100F0B9FC80228D
:1033DC00684BC3F88420FCF793FEA021022000F078
:1033EC00F5FD002877D1A021022000F0EFFD002888
:1033FC008CD0614800F0D2FC564B002218680A2190
:10340C0000F056FD5D4800F0C9FC5D4800F0C6FCBC
:10341C00FFF792FE99F800300546012B7FF47EAF42
:10342C005848FFF703FF7FE7002BD6D0682B40F0FE
:10343C00F680554865216A4603E08B42CDD110F8E1
:10344C00011F12F8013F002BF7D10029C5D100F064
:10345C0077FC4E4800F0A2FC4D4800F09FFC4D4814
:10346C0000F09CFC00F06CFC4B4800F097FC002238
:10347C000A21642000F01CFD414800F08FFC4748F5
:10348C0000F08CFC0A210022084600F011FD3C489B
:10349C0000F084FC424800F081FC0A21002201204B
:1034AC0000F006FD364800F079FC00F049FC3D4880
:1034BC0000F074FC3C4800F071FC3C4800F06EFCE1
:1034CC003B4800F06BFC00F03BFCA021022000F01C
:1034DC007DFD002887D0374800F060FC1C4B002293
:1034EC0018680A2100F0E4FC244800F057FC24483A
:1034FC0000F054FC77E7304800F050FC2F4A304B7A
:10350C001068DFF8D8B02E46002814BF184658466D
:10351C0000F044FC2B4800F041FC2B4BA2461868F1
:10352C00274B002814BF1846584600F037FC274894
:10353C0000F034FC264B1868214B002814BF1846A9
:10354C00584600F02BFC0E4800F028FC0BE700BF9F
:10355C00B4000020D4090020F4590008A809002068
:10356C0080841E0020A107008096980040420F0026
:10357C00155B000800E100E06C5D0008F8590008DC
:10358C005C5B0008A08601001D5B0008485B00081E
:10359C00605B0008885B0008A85B0008D85B00082B
:1035AC00085C0008385C0008645C0008985C000843
:1035BC00D45C0008585D0008D85A00089C0900200B
:1035CC00EC590008E45A000898090020F05A000849
:1035DC00A009002088090020A4090020F059000847
:1035EC007C4800F0DBFB99F800307B4A52F8230052
:1035FC0000F0D4FB794800F0D1FB00220A21D8F866
:10360C00000000F055FC764800F0C8FB386800223A
:10361C000A2100F04DFC734800F0C0FB9AE63F2BEA
:10362C0012D19DF80130002B7FF4D7AE0FE76D4817
:10363C0000F0B4FB6C4800F0B1FB684600F0AEFB48
:10364C006A4800F0ABFB9BE6732B3CD168487021B9
:10365C006A4603E08B4211D110F8011F12F8013FAA
:10366C00002BF7D151B96423624A1360B5E6624866
:10367C0000F094FB5B4800F091FBA6E65F487021DC
:10368C006A4603E08B420AD110F8011F12F8013F81
:10369C00002BF7D119B90A23564A13609DE65848F6
:1036AC0070216A4604E08B427FF497AE10F8011F3C
:1036BC0012F8013F002BF6D100297FF48EAE0123C6
:1036CC004C4A136089E66F2B7FF487AE4D48752208
:1036DC00694603E093420BD110F8012F11F8013F1A
:1036EC00002BF7D122B90621012000F0E5FA74E68F
:1036FC0045487522694603E09A420BD110F8012F18
:10370C0011F8013F002BF7D122B90221012000F062
:10371C00D3FA62E63D487522694603E093420BD129
:10372C0010F8012F11F8013F002BF7D122B901211C
:10373C00084600F0C1FA50E6354875216B4604E0A6
:10374C008A427FF44AAE10F8011F13F8012F002AA9
:10375C00F6D100297FF441AE012000F0ADFA3CE631
:10376C002C4800F01BFB1F4800F018FB99E52A4879
:10377C0000F014FB1B4800F011FBBCE5274800F0DF
:10378C000DFB274B002218680A2100F091FB2548FD
:10379C0000F004FB134800F001FBA5E5224800F003
:1037AC00FDFA104800F0FAFA97E5204800F0F6FA16
:1037BC000C4800F0F3FA89E51D4800F0EFFA0948CF
:1037CC0000F0ECFA7BE51B4800F0E8FA054800F045
:1037DC00E5FA6DE5C05A000868000020C85A0008D8
:1037EC00D05A00085C5B0008FC5A0008105B00080B
:1037FC00395B0008B4000020245B0008015D000860
:10380C000D5D0008195D0008295D0008395D000890
:10381C00495D0008FC590008B45A00089C5A00087D
:10382C0010000020B05A00087C5A0008605A0008AA
:10383C00445A00082C5A000801F0C0BC01F0D2BC5C
:10384C0010B5054C02202146FEF7DEFAC1B2204627
:10385C00BDE8104001F0D0BCF000002010B5A02154
:10386C0082B00446022000F0B1FB50B94FF4A060C6
:10387C00FDF7F2FB0A4B01A80193FDF7F7FB02B031
:10388C0010BD084800F08AFA204600220A2100F0F8
:10389C000FFB054800F082FA044800F07FFAE5E7D8
:1038AC0014010001805D00089C6100085C5B00084D
:1038BC0070B50120FFF7D2FF00240123064D074EFF
:1038CC002B60204634802C60FFF772F84FF4E053E5
:1038DC00204633802B6070BD405C0040104A0020B5
:1038EC0038B501220024054D054B2A6020461C608A
:1038FC00FFF7B4FF032320462B6038BD405C00402B
:10390C00445C004000231C4A70B414681B491C48DA
:10391C00A4B251F8042B92B240F823200133082BA7
:10392C00F7D144F4806124F001050C46124BADB282
:10393C0045F4806641F00101124A1C6019601E605A
:10394C0013685B05FCD54FF6FF3400230B4914605C
:10395C0050F82320013392B2082B41F8042BF7D1F5
:10396C00054A45F481651560136870BC9BB243F041
:10397C0004031360704700BF405C0040005C0040D3
:10398C001C4A0020445C00404FF6FB724FF43F4150
:10399C00024B186802401A6019607047405C004086
:1039AC00314B072870B418BF18701A78052A57D8ED
:1039BC00DFE802F017274D3741035A78013AD2B2AB
:1039CC005A705A7802F0FF014AB94FF6EF72062589
:1039DC002648274C0668324002601D70216270BC7C
:1039EC007047234A126A002A37D14FF6FB714FF405
:1039FC003F4406201D4A1568294011601460187058
:103A0C00EDE74FF6FB714FF43F4504240120174AB4
:103A1C00166831401160164915601C70086270BC44
:103A2C0070475A78013AD2B25A705A78002AD6D1D5
:103A3C0004221A70D3E705240A200C490A6892B2B2
:103A4C0042F010020A601C70587070BC7047022162
:103A5C000322597070BC1A70704705221A70BEE7A9
:103A6C0006221A70BBE700BF184A0020405C0040D9
:103A7C00F00000207B4B30B51B687B4C9BB2238045
:103A8C00238889B09BB2B3F5007F6FD14EF65F22CD
:103A9C00764D6B6A013393426B6200F2C680744DB3
:103AAC0022882B881A40900511D54FF6FF506D4A8D
:103ABC006E49106091F82820C86A0132D2B20228EF
:103ACC0081F8282000F1010200F0B780CA62228838
:103ADC001A4011045FD422881A40520507D54FF6BC
:103AEC00FF31604A634B11605B6898472B882288D2
:103AFC001A40900429D422881A40D1042DD422884B
:103B0C001A4012050AD55C4B1B78002B47D0FFF7E7
:103B1C00F9FE4FF2FF72534B1A602B882288134028
:103B2C00D80510D54FF6FF614E4A544B11601B68F7
:103B3C00190438D400224D4B1A63072009B0BDE894
:103B4C003040FFF72DBF09B030BD4DF6FF71454A2F
:103B5C00116022881A40D104D1D54EF6FF72414B28
:103B6C0000201A60FFF71CFF2B88C8E7A02100205B
:103B7C0000F02CFA002892D0414800F00FF9208870
:103B8C000022102100F094F93E4800F007F93E485D
:103B9C0000F004F983E7FEF769F92B889BE7022014
:103BAC00FFF7FEFEB5E7314D2B6B01332B632B6B0F
:103BBC00032BC2D952F8043C043A13F00803BCD1CD
:103BCC001268324992B26A6351F8042B08A800EBD0
:103BDC008300013392B2082B40F8202CF4D16B6B8C
:103BEC002B4943F001036B636B6B1E4A9BB20B605A
:103BFC006B6B23F001036B636B6B9BB20B601368F5
:103C0C005B05FCD54FF6FF3000232049106008AA55
:103C1C0002EB830252F8202C013392B2082B41F8AC
:103C2C00042BF4D100232B6387E7A021002000F0A4
:103C3C00CDF940B900236B6231E70023CB6201F070
:103C4C001BFE2B8843E7134800F0A8F800220A213A
:103C5C00686A00F02DF9104800F0A0F80A4800F04E
:103C6C009DF8E7E7445C0040144A0020F000002077
:103C7C00104A00208400002028000020485C0040EE
:103C8C009C5D00089C6100085C5B0008005C0040C7
:103C9C00405C0040B45D0008F8590008054AD36A3E
:103CAC00022B03F1010101D0D16270470023D362D2
:103CBC0001F0E2BDF00000204FF0800CF0B54FF4A5
:103CCC00402300254FF4E122144C154E154F85B0BE
:103CDC00C4E90001C7F884C03046694602930092DB
:103CEC000195ADF80C50FDF767FA012240F2255111
:103CFC003046A560E56025616561FDF7E3FA4FF498
:103D0C00A060FDF7A9F9084B68460093FDF7AEF9E2
:103D1C0030460121FDF7CAFA05B0F0BD280100209C
:103D2C000048004000E100E027020001034B5B6803
:103D3C008342CCBF00200120704700BF2801002027
:103D4C00024BD9689A689142FBD170472801002038
:103D5C00F9B12DE9F04104460E4D0F4F00EB01086F
:103D6C00AB68EA680133C3F30A0393420CD0AE6824
:103D7C0094F800C02E44012240F22771384686F890
:103D8C0018C0AB60FDF79EFA01344445E8D1BDE89C
:103D9C00F08170472801002000480040F8B50578F4
:103DAC00CDB106460C4C0D4FA368E2680133C3F34A
:103DBC000A0393420BD0A168012204EB010C384694
:103DCC0040F227718CF81850A360FDF77BFA16F8B7
:103DDC00015F002DE8D1F8BD28010020004800400B
:103DEC00002A60D02DE9F04790460D468146861892
:103DFC002D4C2E4F013E00F1FF3A1AF8012F1309FA
:103E0C00092B94BF03F1300003F13700A368E1687C
:103E1C000133C3F30A038B420DD0A168012204EBDA
:103E2C00010C8CF8180040F227713846A360FDF79E
:103E3C0049FA9AF8002002F00F02A368092A94BFED
:103E4C0002F1300002F137000133E268C3F30A03D8
:103E5C0093420BD0A168012204EB010C8CF81800E2
:103E6C0040F227713846A360FDF72CFA2DB108F10A
:103E7C00FF33AAEB0902934203D8B245BDD1BDE88A
:103E8C00F087A368E2680133C3F30A039342F4D0CA
:103E9C00A06801222044057640F227713846A360C1
:103EAC00FDF710FAE9E770472801002000480040B0
:103EBC002DE9F04F93468BB0002844D13025012AD0
:103ECC008DF804504FF001060DF1040A53D9374612
:103EDC004FF03009294CDFF8A880A368E268013361
:103EEC00C3F30A03934207F101070AD0A068012229
:103EFC00204480F8189040F227714046A360FDF7EB
:103F0C00E1F9BB45E9D8023EB2441D4F0DF1030661
:103F1C0001E01AF80159A368E2680133C3F30A03FC
:103F2C0093420BD0A168012204EB010C384640F2FD
:103F3C0027718CF81850A360FDF7C4F9B245E8D18D
:103F4C000BB0BDE8F08F0DF1040A5246002600E0DC
:103F5C001846B0FBF1F301FB1305EDB2092D94BF2C
:103F6C0030353735EDB2814206F1010602F8015BBE
:103F7C00EED95E45ABD3014CC5E700BF280100204C
:103F8C0000480040F8B5051E06DB2846BDE8F840A1
:103F9C0000220A21FFF78CBF0A4CA368E2680133A8
:103FAC00C3F30A0393420AD02D27A66801222644A4
:103FBC0040F2277104483776A360FDF783F96D4210
:103FCC00E3E700BF28010020004800402DE9F04144
:103FDC00594C6368834200F38780A368E2689B1A9C
:103FEC00C3F30A03C3F500638B4207D2D4F8183825
:103FFC0000200133C4F81838BDE8F081FFF79CF8B5
:10400C00D4F818380546EBB128262020DFF83C817F
:10401C004A4FA368E2680133C3F30A03934209D001
:10402C00A16801222144087640F227713846A3602A
:10403C00FDF748F9002E5DD0304618F8016FE8E71F
:10404C00C4F81868A668E3680136C6F30A069E42EF
:10405C003ED13B480022A0FB05300A21800CFFF723
:10406C0027FFA368E2680133C3F30A0393420AD023
:10407C002E27A6680122264440F227712F48377656
:10408C00A360FDF71FF92E4B2E48A3FB05239B0CB9
:10409C0000FB13500A210622FFF70AFF20255D21A1
:1040AC00294E264FA368E2680133C3F30A039342F7
:1040BC0009D0A06801222044017640F227713846CD
:1040CC00A360FDF7FFF895B1294616F8015FE9E703
:1040DC005B27A3680122234440F2277117481F76FF
:1040EC00A660FDF7EFF8B4E70020BDE8F0810120F1
:1040FC00BDE8F0813246D4F818080A21FFF7D8FE43
:10410C0072262020DFF848800C4FA368E268013348
:10411C00C3F30A03934209D0A16801222144087613
:10412C0040F227713846A360FDF7CCF8002E87D0FB
:10413C00304618F8016FE8E72801002000480040DD
:10414C0083DE1B4340420F00E55D0008C95D00089B
:10415C00CD5D0008034B18695B69C01A00F03F0085
:10416C00704700BF280100200E4A30B40446106985
:10417C005369C01A00F03F00884228BF084670B14E
:10418C00013C21185369134493F81C58536904F8E3
:10419C00015F013303F03F038C425361F2D130BC19
:1041AC00704700BF280100201A4A70B405461069F8
:1041BC005369C01A10F03F000DD0002453692344FA
:1041CC0003F03F03134493F81C380D2B05D0013436
:1041DC008442F3D1002070BC7047A042FAD0A142B7
:1041EC0086BF611C204601F1FF3071B16C1E214469
:1041FC005369134493F81C68536904F8016F013335
:10420C0003F03F038C425361F2D100232B5470BC5A
:10421C00704700BF2801002038B580212948FDF7E0
:10422C001BF978B1284CE268A3689A423DD0E36848
:10423C0024482344197EFDF7A1F8E3680133C3F346
:10424C000A03E36020211F48FDF706F900B938BDC9
:10425C001C48FDF797F81C4BC0B21A691A4482F837
:10426C001C081A69013202F03F021A6119695A6975
:10427C00914204D15A69013202F03F025A611A6824
:10428C00002AE4D09C68DA680134C4F30A0494422E
:10429C00DDD09D6801221D44287640F227719C6078
:1042AC000848BDE83840FDF70DB840F227710548C5
:1042BC000022FDF707F820210248FDF7CDF8002871
:1042CC00C5D0C5E70048004028010020704700BF5A
:1042DC00FEE700BFFEE700BFFEE700BFFEE700BF42
:1042EC00704700BF704700BF704700BF704700BFEA
:1042FC00FFF7C0BBFFF790BF00F0D2BE00F01CBFB1
:10430C0070B5174C23688BB9164B1B68DB4313F045
:10431C00600F14BF022500252379AB4205D0A021E4
:10432C000220FFF753FE18B9257170BD0125F3E784
:10433C000D48FFF733FD0B4E237906EB83035868CA
:10434C00FFF72CFD06EB85060848FFF727FD706884
:10435C00FFF724FD0648FFF721FD2571E5E700BFB7
:10436C008409002064000020385E0008485E0008C4
:10437C005C5B00080D4B10B51B68A0210020DC789D
:10438C00FFF724FE08B9002010BD0948FFF706FD11
:10439C00002210212046FFF78BFD0648FFF7FEFC9C
:1043AC000548FFF7FBFC002010BD00BF0C4A0020A5
:1043BC00505E00089C6100085C5B000838B5044640
:1043CC000D460020A021FFF701FE28B9A5B9012C4C
:1043DC008CBF0220002038BD0848FFF7DFFC00220C
:1043EC0010212046FFF764FD0548FFF7D7FC054870
:1043FC00FFF7D4FC002DEAD0022038BD745E000813
:10440C009C6100085C5B000838B5A02105460020C3
:10441C00FFF7DCFD00286ED1A0210020FFF7D6FDB0
:10442C003C4C002855D1A0210020FFF7CFFD0028DF
:10443C003FD1A0210020FFF7C9FD50BBA0210020D7
:10444C00FFF7C4FDA8B92268137803F07F03402B53
:10445C000BD15F2D0BD0952D07D12F4B00249361E1
:10446C00548220469847204638BD022038BD2B4B3D
:10447C00F4E72B48FFF792FC23680022D888102120
:10448C00FFF716FD2748FFF789FC2748FFF786FC46
:10449C00D9E72648FFF782FC236800229888102170
:1044AC00FFF706FD1F48FFF779FC1F48FFF776FC66
:1044BC00C4E71F48FFF772FC2368002258881021BC
:1044CC00FFF7F6FC1748FFF769FC1748FFF766FC87
:1044DC00AFE71848FFF762FC236800221878102118
:1044EC0000F07F00FFF7E4FC0E48FFF757FC0E4886
:1044FC00FFF754FC97E71048FFF750FC00221021FF
:10450C002846FFF7D5FC0748FFF748FC0648FFF79D
:10451C0045FC81E70C4A002049450008C1450008CC
:10452C00F85E00089C6100085C5B0008E45E000813
:10453C00D05E0008B85E00089C5E000810B5A02193
:10454C0004460020FFF742FD90B9134B1B68DA7844
:10455C00262A03D811481249825C0A729A78262AB4
:10456C0003D80E480E49825C4A7284B10D4810BDC6
:10457C000D48FFF713FC00220A212046FFF798FC98
:10458C000A48FFF70BFC0A48FFF708FCDDE702229C
:10459C0020461A8210BD00BF0C4A00203C4A002065
:1045AC00840900208C0900200C5F00089C61000825
:1045BC005C5B000810B5A02104460020FFF706FD47
:1045CC0010B98CB10B4810BD0B48FFF7E7FB00226C
:1045DC000A212046FFF76CFC0848FFF7DFFB084870
:1045EC00FFF7DCFB002CEDD10222064B20461B68AA
:1045FC001A8210BDE85D0008245F00089C61000869
:10460C005C5B00080C4A002010B5A0210446002079
:10461C00FFF7DCFC28B92046BDE810400B49FDF73C
:10462C00E5BE0B48FFF7BAFB0A2100222046FFF734
:10463C003FFC0848FFF7B2FB0748FFF7AFFB2046EB
:10464C00BDE810400149FDF7D1BE00BF7400002049
:10465C00405F00089C6100085C5B000810B5A0215D
:10466C0004460020FFF7B2FC28B92046BDE81040F4
:10467C000B49FDF7BBBE0B48FFF790FB0A2100224C
:10468C002046FFF715FC0848FFF788FB0748FFF7A3
:10469C0085FB2046BDE810400149FDF7A7BE00BFD1
:1046AC007C000020605F00089C6100085C5B0008D7
:1046BC00F0B5CB4B8BB0A0210020DE7C9D7C1C7E0A
:1046CC00FFF784FC002840F0CC8101A805F003071B
:1046DC00FCF7CCFDC5F3800507EB47032B44C6F56F
:1046EC008076C3F10C03BF4A06FA03F3B2FBF3F373
:1046FC00A02100200193FFF769FC002840F0A28163
:10470C00A0210020FFF762FC002840F05981A02175
:10471C000020FFF75BFC002840F04381A021002023
:10472C00FFF754FC002840F0A88004F00305032D8B
:10473C0040F08D800023A0210020ADF80830FFF759
:10474C0045FC002840F0B880E30203F40053A0219C
:10475C000020ADF80A30FFF739FC002840F09C80AF
:10476C0014F0080350D1A0210020ADF80C30FFF755
:10477C002DFC00285BD1200654BF002304236106C6
:10478C00ADF80E3005D5BDF80E3043F00803ADF88A
:10479C000E30A0210020FFF719FC002840F0F1801A
:1047AC000C230025904C01A92046ADF80E30ADF835
:1047BC001050FCF701FD05A8FDF738FA2489089B79
:1047CC002846A021B3FBF4F4FFF700FC002840F0CE
:1047DC00C980A0210220FFF7F9FB00287CD101221F
:1047EC0040F225518048FCF76DFD4FF4A060FCF7BA
:1047FC0033FC7E4B05A80593FCF738FC01217A4865
:10480C00FCF754FD0BB0F0BD14F0100F14BF4FF4B7
:10481C0080624FF4C0624FF48053A0210020ADF8A9
:10482C000C20ADF80830FFF7D1FB0028A3D070485E
:10483C00FFF7B4FA00221021BDF80C00FFF738FB8B
:10484C006C48FFF7ABFA6C48FFF7A8FA93E7A02186
:10485C000020FFF7BBFB00283FF46CAF6748FFF765
:10486C009DFA284600221021FFF722FB6448FFF72F
:10487C0095FA6148FFF792FA5CE76248FFF78EFA07
:10488C0000220A210198FFF713FB5A48FFF786FA1A
:10489C005948FFF783FA48E75B48FFF77FFA002295
:1048AC001021BDF80A00FFF703FB5248FFF776FA18
:1048BC005148FFF773FA53E75448FFF76FFA002299
:1048CC001021BDF80800FFF7F3FA4A48FFF766FA23
:1048DC004948FFF763FA37E74D48FFF75FFA204680
:1048EC0000220A21FFF7E4FA4A48FFF757FABDF80D
:1048FC000830002B40F0BC804748FFF74FFA474880
:10490C00FFF74CFABDF80A30002B00F0BA8044488F
:10491C00444AB3F5005F18BF1046FFF73FFA424810
:10492C00FFF73CFABDF80C30002B00F0A880B3F573
:10493C00C06F00F0B2803D483A4AB3F5806F18BFA3
:10494C001046FFF72BFA3A48FFF728FABDF80E305D
:10495C005A0700F19C801B0700F195802648FFF751
:10496C001DFA3CE73348FFF719FA2A460A2120467C
:10497C00FFF79EFA1F48FFF711FA1F48FFF70EFAD0
:10498C0027E72D48FFF70AFA00221021BDF80E0088
:10499C00FFF78EFA1748FFF701FA1748FFF7FEF9F1
:1049AC00FEE62648FFF7FAF9284600220A21FFF70F
:1049BC007FFA1048FFF7F2F90F48FFF7EFF9ADE671
:1049CC001F48FFF7EBF9384600220A21FFF770FA6F
:1049DC000848FFF7E3F90848FFF7E0F997E600BF4E
:1049EC003C4A0020006CDC0200380140250000012C
:1049FC0044600008F85900085C5B0008E85F000898
:104A0C0010600008D05F00083460000820600008C7
:104A1C007460000890600008805F000898600008CF
:104A2C00905F0008885F0008A46000089C5F000885
:104A3C00B06000086060000854600008C45F0008A3
:104A4C00BC5F00081648FFF7A9F9304600220A217E
:104A5C00FFF72EFA1348FFF7A1F91348FFF79EF959
:104A6C004EE61248FFF79AF90F48FFF797F92CE634
:104A7C000F48104AB3F5805F18BF10463DE70E484B
:104A8C005FE70E4849E70E48FFF788F966E70D48DF
:104A9C00FFF784F9BDF80E305DE70B4851E700BF16
:104AAC00B45F0008F85900085C5B0008A45F0008BC
:104ABC00845F0008885F0008945F00088C5F000822
:104ACC00BC600008B8600008985F000838B5044660
:104ADC000D460020A021FFF779FA08BBA021002089
:104AEC00FFF774FA68B9262C9CBF154B1D55A4F121
:104AFC001203012B02D9182C00D038BDBDE8384068
:104B0C00D6E51048FFF74AF9002210212846FFF796
:104B1C00CFF90D48FFF742F90C48FFF73FF9E2E7F0
:104B2C000B48FFF73BF9002210212046FFF7C0F994
:104B3C000848FFF733F90548FFF730F9CEE700BF17
:104B4C003C4A0020D4600008F85900085C5B00085F
:104B5C00C06000089C61000838B5A0210546002003
:104B6C00FFF734FA00285BD1A0210020FFF72EFAC2
:104B7C00434C002842D1A0210020FFF727FA68BB44
:104B8C00A0210020FFF722FAC0B92268137803F0A5
:104B9C007F03402B01D0022038BDA12D5CD0A42D69
:104BAC004DD09A2DF7D15179D078FFF78FFF23682C
:104BBC0098781979FFF78AFF002038BD3148FFF744
:104BCC00EDF82368002298881021FFF771F92E4820
:104BDC00FFF7E4F82D48FFF7E1F8D6E72C48FFF78C
:104BEC00DDF82368002258881021FFF761F9264868
:104BFC00FFF7D4F82548FFF7D1F8C1E72548FFF7B0
:104C0C00CDF8236800221878102100F07F00FFF700
:104C1C004FF91D48FFF7C2F81C48FFF7BFF8AAE789
:104C2C001D48FFF7BBF8002210212846FFF740F97A
:104C3C001548FFF7B3F81548FFF7B0F894E7A02133
:104C4C0000205488FFF7C2F950B9144B240A1C6099
:104C5C00FFF756FB002038BDFFF72AFD002038BDBA
:104C6C000F48FFF79BF8002202212046FFF720F99E
:104C7C000548FFF793F80548FFF790F8E5E700BF04
:104C8C000C4A0020146100089C6100085C5B000861
:104C9C0000610008B85E0008E460000864000020B1
:104CAC002861000870B5234DEC682B69E41AC4F335
:104CBC000C0404F12003B3F5005F05D20220FDF7CC
:104CCC003DFF6E697EB170BD20210220FDF7C4FE50
:104CDC006B69002BF7D0A0210220FFF777F950B9B0
:104CEC0000236B6170BDA0210220FFF76FF988B91A
:104CFC0001236B6170BD1048FFF750F8204600226D
:104D0C000A21FFF7D5F80D48FFF748F80C48FFF7D4
:104D1C0045F8E5E70B48FFF741F8324620460A21F3
:104D2C00FFF7C6F80548FFF739F80548FFF736F8DE
:104D3C00DEE700BF8409002060610008F859000814
:104D4C005C5B00084061000838B5A0210220FFF729
:104D5C003DF900285ED100248025324B20461B688B
:104D6C005D725C81FDF742FE20464FF40071FDF749
:104D7C005BFE20461021FDF76FFE20462021FDF73B
:104D8C00BBFF20464021FDF7A7FF2046FDF70AFF99
:104D9C00254B204693F84C10FDF7FCFF2046FDF701
:104DAC00CDFE4FF4C0610120FDF73EFE60210120D5
:104DBC00FDF792FF20210120FDF74EFE2146012038
:104DCC00FDF764FE21460220FDF72EFE4FF48071A4
:104DDC000220FDF781FF29460220FDF78DFF2146B9
:104DEC000220FDF7B5FF20210220FDF7D3FF202183
:104DFC000220FDF731FE02204FF44051FDF746FE34
:104E0C0001220A4B20469C615A61DC61BDE83840A6
:104E1C00FDF7A0BD0648FEF7C1FF0648FEF7BEFF32
:104E2C0099E700BF0C4A0020640000208409002090
:104E3C00806100085C5B000810B5A0210220FFF720
:104E4C00C5F848BB0024184B1B689C72FEF730FD5C
:104E5C00FCF7B4FF234621461448154AC46004628B
:104E6C00046144628462C462D1540133B3F5005FBF
:104E7C00FAD100231A460F49CA540133B3F5005F27
:104E8C00FAD14FF0FF31BDE810400B4B826102604C
:104E9C00C2611960FFF734BA0848FEF77FFF084873
:104EAC00FEF77CFFCEE700BF0C4A002084090020EF
:104EBC00D8290020D8090020640000209061000847
:104ECC005C5B000808B5A0210020FFF77FF800B953
:104EDC0008BD0448FEF762FFBDE808400248FEF733
:104EEC005DBF00BFA06100085C5B000808B5A02195
:104EFC000020FFF76BF800B908BD0448FEF74EFF21
:104F0C00BDE808400248FEF749BF00BFB061000889
:104F1C005C5B000851B3164A70B5D3681469013351
:104F2C00C3F30C03A34213D00144124E4D1E01389F
:104F3C0006E0D36811690133C3F30C03994207D01F
:104F4C0010F8014FD168A8427454D360F1D170BDF0
:104F5C00A0210420FFF73AF80028F8D00648FEF705
:104F6C001DFFBDE870400548FEF718BF704700BF35
:104F7C0084090020D8290020BC6100085C5B000873
:104F8C00F8B53B4CA56AE36AED1AC5F30C0505B9F7
:104F9C00F8BDA0210020FFF719F800284CD1FFF72D
:104FAC00AFF92079012841D020239D4228BF1D460E
:104FBC00304A314F5619E36AF95CE36A02F8011B77
:104FCC000133C3F30C039642E362F4D101284FF092
:104FDC00A00146D002284FF001003CD0FEF7F6FFAE
:104FEC0050B92A4623490220FCF7FAFE0220FDF7AD
:104FFC0091FD0123A361F8BD2048FEF7CFFE2048A8
:10500C00FEF7CCFE00220A212846FEF751FF1D4870
:10501C00FEF7C4FE2A463A211648FEF7E1FE1A486E
:10502C00FEF7BCFE1948FEF7B9FEDAE7E3690BB1EF
:10503C001E2DADD91F23B8E71548FEF7AFFE002291
:10504C000A212846FEF734FF1248FEF7A7FE0F4848
:10505C00FEF7A4FEA3E7FEF7B9FF0028C1D00E4867
:10506C00CBE7FEF7B3FF0028BBD00C48C5E700BF69
:10507C0084090020B4090020D80900201C62000813
:10508C0008620008E45D0008F85900085C5B000841
:10509C00D86100089C6100080C620008F8610008E7
:1050AC0038B580212048FCF7D7F968B11F4C23791B
:1050BC00022B03D12269E3689A4222D1002240F2EA
:1050CC0027711948FCF7FEF820211748FCF7C4F9A2
:1050DC0000B938BD1448FCF755F9144B1A79022A5B
:1050EC00F7D19A6AD96A0132C2F30C028A42F0D023
:1050FC00596A9C6A0E4DC0B20131285559629A62A8
:10510C0038BD23690B4A0848D15CFCF737F9236991
:10511C00226A0133C3F30C0323612169E368013272
:10512C0099422262D0D1C9E700380140840900209D
:10513C00D8090020D829002038B501211B48FCF7DC
:10514C00FBFA1B4C28B92379012B17D00023E36100
:10515C0038BD1648FCF7A4FA2379012BF6D1A36AC3
:10516C00E26A0133C3F30C03934207D0626AA16A6B
:10517C00104DC0B2013268546262A3622269E368C6
:10518C009A42E3D00123E36123690B4A0748D15CBF
:10519C00FCF784FA2369226A0133C3F30C032361FD
:1051AC00013223692262E36838BD00BF0038004039
:1051BC0084090020D8090020D829002008B5A02196
:1051CC000020FEF703FF00B908BD0448FEF7E6FD1A
:1051DC00BDE808400248FEF7E1BD00BF2C620008A4
:1051EC005C5B00080022034B9A619B6903B9C7E61C
:1051FC00704700BF840900202DE9F04F05468BB0A5
:10520C000C460020A021FEF7E1FE00283AD1C84E42
:10521C00FFF776F83379012B12D9022B0BD1A02191
:10522C000120FEF7D3FE00283BD128462146FFF78C
:10523C0071FE002C54D1FFF735FD0BB0BDE8F08F9B
:10524C00002CF8D02B78AA2B00F08580AB2B65D0E6
:10525C00A82B4FF0A0014ED00420FEF7B7FE00287B
:10526C00E9D0B448FEF79AFDB348FEF797FD00224B
:10527C000A212046FEF71CFEB048FEF78FFD2246A1
:10528C00284695E0AE48FEF789FD00220A2120460B
:10529C00FEF70EFEAB48FEF781FDAB48FEF77EFD38
:1052AC00B5E7AA48FEF77AFDA348FEF777FD002282
:1052BC000A212046FEF7FCFDA048FEF76FFD3A21BF
:1052CC0022462846FEF78CFDA148FEF767FD9E4856
:1052DC00FEF764FD28462146FFF71CFE002CAAD0E1
:1052EC00012240F227719B48FBF7ECFFFFF7DAFC39
:1052FC000BB0BDE8F08F0120013C0544FEF766FEC3
:10530C0000285FD128462146FFF704FE002C92D0DE
:10531C00F369002B8FD1FFF70FFF8CE7012C11D015
:10532C002B1913F8013C202B67D0023C2C44C5F1FF
:10533C00010303E014F80129202A5DD0AC4203EBF1
:10534C000401F7D1A0210420FEF740FE00283FF411
:10535C0072AF81481DE0012C13D02B1913F8013CBE
:10536C00002B00F08E80023C2C44C5F1010304E0BC
:10537C0014F80129002A00F08380AC4203EB0401ED
:10538C00F6D1A0210420FEF721FE00283FF453AFF4
:10539C007248FEF703FD6848FEF700FD00220A2163
:1053AC000120FEF785FD6548FEF7F8FC2846012232
:1053BC003A21FEF715FD6648FEF7F0FC6248FEF751
:1053CC00EDFC38E76648FEF7E9FC5B48FEF7E6FCC7
:1053DC0000220A212046FEF76BFD5848FEF7DEFC42
:1053EC0022463A212846FEF7FBFC5948FEF7D6FC2C
:1053FC005548FEF7D3FC85E7CCB2A0210020FEF780
:10540C00E5FD013CE4B26F1C002840F0B781ED4390
:10541C00DFF86491DFF864B11DE01AF0400F16D08C
:10542C001AF03F0F4FF0A0014FF0020000F0B780D0
:10543C00FEF7CCFD002840F076814FF00108C6F84D
:10544C000080FEF75DFF41464648FCF7F7F8EB1984
:10545C009C427FF6F0AE17F801AB1AF0800FDCD04F
:10546C00A02100200AF00108FEF7B0FD002840F052
:10547C002D8142464FF480514846FCF779FACCE72F
:10548C00CCB2013CE4B205F10108DFF8BCA004E0A9
:10549C00EB434344A342BFF4CEAEA021002018F846
:1054AC00017BFEF793FD00286AD107F06003602BA7
:1054BC00EED12D4B07F0030203EB8203A021002059
:1054CC00D3F804B007F00407FEF780FD002840F085
:1054DC001B81D6F85090B9F1000F06D1234B1B6DF0
:1054EC00002B00F02E8103FB0BF9A0210020FEF70E
:1054FC006DFD002840F0F980A021002F00F0BB804A
:10550C00002F70D10420FEF761FD00283FF493AE0C
:10551C001748FEF743FC384600221021FEF7C8FC62
:10552C001448FEF73BFC0848FEF738FC83E600BF46
:10553C0084090020B863000808620008E45D0008D4
:10554C00386200089C6100085C5B00085862000827
:10555C00F8590008003801404C63000878620008D4
:10556C006862000800380040E85D00086400002014
:10557C00F462000810630008000C01408C63000802
:10558C00AB48FEF70BFC002210213846FEF790FCCE
:10559C00A848FEF703FC5046FEF700FC85E7FEF733
:1055AC0015FD002840F0C6804FF00008C6F80080BA
:1055BC00FEF7A6FE4146A048FCF740F84146022003
:1055CC00FDF7C6FB20210220FDF746FAC6F818802D
:1055DC00C6F81C80C6F80C80C6F81080C6F8288067
:1055EC00C6F82C8033E70020FEF7F0FC002840F0D2
:1055FC00E280EB465846FCF70DF84FF482734FF4FB
:10560C000067ADF802304FF4007305A8ADF80470D4
:10561C00ADF80A30FCF70AFB089F07EB5903B3FB04
:10562C00F9F9B9F1020F35D800227F0880235946C9
:10563C008148ADF80C20ADF80E30FBF777FFA021B8
:10564C000020FEF7C3FC002840F08980A021022036
:10565C00FEF7BCFC002876D1012260217648FCF7CD
:10566C0005F84FF4A060FBF7F7FC744B05A8059305
:10567C00FBF7FCFC0CE73846FEF7A8FC002840F0D2
:10568C00B980EB465846FBF7C5FF4FF48273ADF873
:10569C000230B8E7B9F1050F40F28A80B9F10B0F6F
:1056AC0040F2A280B9F1170F40F2A180B9F12F0F8F
:1056BC0040F2B780B9F15F0F40F2B680B9F1BF0F7D
:1056CC0099BFFF09302238223F0AAFE75846FEF750
:1056DC0065FB00220A214046FEF7EAFB5848FEF71C
:1056EC005DFB5848FEF75AFBC3E65748FEF756FBDE
:1056FC0000220A214846FEF7DBFB5448FEF74EFB1E
:10570C005046FEF74BFBF7E65148FEF747FB0022ED
:10571C000A215846FEF7CCFB4C48FEF73FFB50469F
:10572C00FEF73CFBD5E64B48FEF738FB4548FEF749
:10573C0035FB82E64848FEF731FB4248FEF72EFB6C
:10574C0032E7D946D1E64548FEF728FB3846002219
:10575C000A21FEF7ADFB5046FEF720FB7CE74048E4
:10576C00FEF71CFB00220A213846FEF7A1FB374846
:10577C00FEF714FB5046FEF711FB67E73948FEF7BE
:10578C000DFB3948FEF70AFB00220A212046FEF7E2
:10579C008FFB3648FEF702FB22463A213846FEF7CD
:1057AC001FFB2448FEF7FAFA2648FEF7F7FA2EE616
:1057BC00BF0808223AE7EB462D48FEF7EFFA002225
:1057CC000A211020FEF774FB2A48FEF7E7FA504630
:1057DC00FEF7E4FA5846FBF71DFF4FF482734FF4C3
:1057EC000067ADF802300EE7FF0810221EE73F09F4
:1057FC0018221BE7EB461E48FEF7D0FA3A460A2160
:10580C000820FEF755FB1B48FEF7C8FA5046FEF77A
:10581C00C5FA5846FBF7FEFE4FF48273ADF8023022
:10582C00F1E67F09202201E7BF092822FEE600BF2E
:10583C00A06200089C6100080038004024000001B0
:10584C00F85900085C5B0008D4620008CC620008C0
:10585C00B8620008A0630008AC6300083463000859
:10586C00246300087063000808620008E45D000807
:10587C00CC630008D863000810B50B4C2379012BBE
:10588C0007D0A3690BB9FFF77BFBBDE81040FFF70E
:10589C0009BA2269E3689A42F3D0E369002BF0D18C
:1058AC00FFF74AFCEDE700BF8409002070B5012129
:1058BC0082B00420FCF70EFA01210820FCF70AFA4A
:1058CC0001211020FCF706FA01214FF48040FCF76F
:1058DC0001FA01214FF48020FCF708FA01214FF462
:1058EC008040FCF703FA0020FCF76CF901214FF41F
:1058FC000000FCF7FBF9324E01A8FCF719F8314B0C
:10590C0001A93046304C0193FBF7B6FF01A8FCF718
:10591C000FF82E4B042501A920460193FBF7ACFF91
:10592C004FF400630DEB05012046ADF804308DF803
:10593C000750FBF7A1FF0DEB0500FBF7F9FF244B1C
:10594C000DEB050130460193FBF796FF4FF44063D6
:10595C000DEB05013046ADF804308DF80750FBF720
:10596C008BFF0DEB0500FBF7E3FF1A4B0DEB05016D
:10597C0020460193FBF780FF4FF4204218230DEBD8
:10598C0005012046ADF804208DF80730FBF774FFB5
:10599C004FF480430DEB05012046ADF804308DF833
:1059AC000750FBF769FF0DEB0500FBF7C1FF0A4B36
:1059BC000DEB050109480193FBF75EFF02B070BDCA
:1059CC000008014000180318000C014000040218E4
:1059DC0000120218001001100020021000100140EB
:1059EC004F4E00006F6666000D0A0D0A00000000A5
:1059FC00506C6174666F726D3A20626C756570697B
:105A0C006C6C2073746D333266313033633874369A
:105A1C002028636F727465782D6D332900000000A7
:105A2C004669726D776172652076657273696F6E07
:105A3C003A20302E312E3000535643206162627270
:105A4C00657620636F6D6D697420306464383366DD
:105A5C00640000004275696C6420323032312D30A4
:105A6C00372D30362031393A35323A353300000093
:105A7C002D2D2D2D2D2D2D2D2D2D2D2D2D2D2D2D4A
:105A8C002D2D2D2D2D2D2D2D2D2D2D2D00000000EE
:105A9C0053797374656D436F7265436C6F636B20E0
:105AAC003D20000020487A005374617274696E675F
:105ABC00000000006D6F64653A2000003B20747894
:105ACC003A2000003B2072783A2000007573625F28
